:0E00000017C0FECFFDCFFCCFFBCFFACFF9CF5C
:10000E00F8CFF7CFF6CF55C88E00000000000100E4
:10001E000F0001000A0032000A000800040014005C
:10002E000000F894EE27ECBBE5BFF8E1A4B7A77F7C
:10003E00A4BFF1BDE1BD8DE0A2E0ED938A95E9F795
:10004E0080E4A0E6ED938A95E9F7E8E2F0E0C89542
:10005E003196802DC8953196902D0097B9F0C895A0
:10006E003196A02DC8953196B02DC8953196102C8D
:10007E00C89531966E2F7F2FF02DE12DC8953196B4
:10008E000D920197D9F7E62FF72FE1CFEFE9EDBFEC
:10009E00C0E779C0AA93E881E066E7B98BE18A955B
:1000AE00F1F7369A349901C0FDCF349AE5B1219615
:1000BE000895C49902C0C49A01C0C4980895FAD094
:1000CE0000E010E0A4E6B0E0EBD076B6571408F4EA
:1000DE0015C0EFDF76BEA2E3B0E0E2D0A3E0DADF38
:1000EE00CE2E0C1508F002C00C2D172DA02FAC191A
:1000FE00AB3008F401C002C07394E8CF751408F455
:10010E0004C0E0E009911991089546BEA4E6B0E05E
:10011E00C7D0E12FE150E6BFE12F09911991089563
:10012E00AA93C8D000E010E0A4E6B0E0B9D076B64D
:10013E00571408F41DC0BDDF76BEA2E3B0E0B0D008
:10014E00A3E0A8DFCE2E0C1508F002C00C2D172D43
:10015E00A02FAC19AB3008F401C00AC0EA81CE164C
:10016E0008F404C0E72DA9D0239608957394E0CF28
:10017E0046BEA4E6B0E094D0E12FE150E6BFE0E049
:10018E009CD023960895E0E8E6BDE0E0E6BDE1E30D
:10019E00E7BBE0E0E8BBE3E8EFBDE1E0E3BFE0E0B2
:1001AE00E2BFE5E5E6BFE0E0E9BFEBBFE5BFE0E8B3
:1001BE00E8B9E0E0E4BBE4B3E4BBE0E6E7B9E3EAC8
:1001CE00E6B9E0E0E3B9A62DABDFE03009F402C0FA
:1001DE00C49A01C0C498B19902C088249924B19BD5
:1001EE0006C0E82DF92D31968E2E9F2E3197EFE019
:1001FE00F0E0E815F90509F002C088249924B299B7
:10020E0002C0AA24BB24B29B06C0EA2DFB2D319658
:10021E00AE2EBF2E3197EFE0F0E0EA15FB0509F0A8
:10022E0002C0AA24BB24AAE0B0E03AD0E1E0F0E09C
:10023E00E815F90509F006C000240A140B0409F0AC
:10024E0001C001C008C0C49AA5E0B0E029D0E6B74D
:10025E00EF5FE6BFC498E1E0F0E0EA15FB0509F0B8
:10026E0006C000240814090409F001C001C008C02A
:10027E00C49AA5E0B0E014D0E6B7E150E6BFC4984A
:10028E00B19B03C0B29B01C001C008C0C49817DF68
:10029E00E03009F402C0C49A01C0C4989CCFFFCFCD
:1002AE00109639F080ED97E00197F1F7A895119728
:1002BE00C9F708951A930A9308951981088108952C
:00000001FF
